:020000040800F2
:10000000F81A002015020008955400085906000847
:1000100091540008A904000893590008000000004A
:10002000000000000000000000000000FD55000876
:10003000AD040008000000002B0200082D0200089B
:100040002F0200082F0200082F0200082F020008CC
:100050002F0200082F0200082F0200082F020008BC
:100060002F0200082F0200082F0200082F020008AC
:100070002F0200082F0200082F0200082F0200089C
:100080002F0200082F0200082F0200082F0200088C
:100090002F0200082F0200082F0200082F0200087C
:1000A0002F0200082F0200082F0200082F0200086C
:1000B0002F0200082F0200082F0200082F0200085C
:1000C0002F0200082F0200082F0200082F0200084C
:1000D0002F020008715700082F0200082F020008A5
:1000E0002F0200082F0200082F0200082F0200082C
:1000F0002F0200082F0200082F0200082F0200081C
:100100002F0200082F0200082F0200082F0200080B
:100110002F0200082F0200082F0200082F020008FB
:100120002F0200082F0200082F0200082F020008EB
:1001300000F002F800F05FF80AA090E8000C82449A
:100140008344AAF10107DA4501D100F054F8AFF277
:10015000090EBAE80F0013F0010F18BFFB1A43F0A5
:1001600001031847A8740000C87400000A444FF047
:10017000000C10F8013B13F0070408BF10F8014B06
:100180001D1108BF10F8015B641E05D010F8016B4B
:10019000641E01F8016BF9D113F0080F1EBF10F8AF
:1001A000014BAD1C0C1B09D16D1E58BF01F801CBD2
:1001B000FAD505E014F8016B01F8016B6D1EF9D555
:1001C0009142D6D37047000000230024002500266A
:1001D000103A28BF78C1FBD8520728BF30C148BFAA
:1001E0000B607047782900F07780002070471FB5BA
:1001F0001FBD10B510BD00F027F91146FFF7F7FF3E
:1002000005F048FC00F045F903B4FFF7F2FF03BC2A
:1002100005F0C1FB0948804709480047FEE7FEE7B3
:10022000FEE7FEE7FEE7FEE7FEE7FEE7FEE7FEE7A6
:1002300004480549054A064B70470000115700085D
:1002400031010008F8140020F81A0020F8160020E8
:10025000F8160020704700000FB4044910B503AA37
:10026000029800F0C3F810BC5DF814FBA013002046
:100270002DE9F0410E460446002020622046E16848
:10028000884730B3252805D0D4E901219047206A5A
:10029000401CF2E7E168204600278847050018D097
:1002A000A5F14100192802D820354FF400673246E5
:1002B000294620462760FFF795FF40B1012804D06A
:1002C000F61D26F007060836D8E7361DD6E728467D
:1002D000DAE7206ABDE8F08170B504460D46214694
:1002E0001068AFF300802188090502D50F4A7A44CF
:1002F00002E00E4A7A440E32002104F1240305E0A4
:1003000000F00F060009965D5E54491C0028F7D1E5
:1003100020780023000704D5702D02D009B10223F4
:1003200011322046BDE8704000F006B8F2720000BD
:1003300070477047704770472DE9F0470D46994662
:100340009246044600F124080168880604D5E06955
:1003500021F01001216000E00120A84201DD471BCF
:1003600000E00027A1697A1902EB0900081AA061D0
:100370002078C00602D42046AFF30080002608E0B3
:10038000D4E901211AF806009047206A401C761C27
:1003900020624E45F4DB2078C0060AD52046AFF334
:1003A000008006E0D4E9012130209047206A401CFB
:1003B0002062381EA7F10107F4DC07E0D4E901212F
:1003C00018F805009047206A401C2062281EA5F1FD
:1003D0000105F3DC2046AFF300802078000602D54B
:1003E0000220BDE8F0870120FBE70000074B70B555
:1003F0000D467B4400F011F80446284600F020F832
:1004000010B14FF0FF3070BD204670BD8356000024
:1004100001694A1C02610878704700B58FB0CDE9C8
:1004200001310021059105497944CDE903101146B8
:100430006846FFF71DFF0FB000BD0000E5FFFFFF9E
:10044000007B00F080007047754600F029F8AE464A
:1004500005006946534620F00700854618B020B5D0
:10046000FFF7E6FEBDE820404FF000064FF0000722
:100470004FF000084FF0000B21F00701AC46ACE84C
:10048000C009ACE8C009ACE8C009ACE8C0098D46B9
:1004900070470446AFF300802046FFF7B5FE00002A
:1004A000004870479814002000BFFEE770472DE910
:1004B000F0410246002500260020002300240027EA
:1004C00091F803C00CF00F0591F803C00CF0100C6C
:1004D000BCF1000F03D091F802C04CEA050591F879
:1004E00000C0BCF1000F31D0146800202BE04FF0A9
:1004F000010C0CFA00F3B1F800C00CEA03069E42AE
:1005000020D183004FF00F0C0CFA03F7BC4305FA1F
:1005100003FC4CEA040491F803C0BCF1280F06D197
:100520004FF0010C0CFA00FCC2F814C00AE091F87C
:1005300003C0BCF1480F05D14FF0010C0CFA00FCD0
:10054000C2F810C0401C0828D1D31460B1F800C014
:10055000BCF1FF0F34DD546800202EE000F1080CE0
:100560004FF0010808FA0CF3B1F800C00CEA0306DA
:100570009E4221D183004FF00F0C0CFA03F7BC43CD
:1005800005FA03FC4CEA040491F803C0BCF1280FFF
:1005900005D100F1080C08FA0CF8C2F8148091F8A3
:1005A00003C0BCF1480F07D100F1080C4FF001085F
:1005B00008FA0CF8C2F81080401C0828CED354600A
:1005C000BDE8F081F0B50A46002300240021002593
:1005D00000F00046B6F1004F02D11D4EF16901E076
:1005E0001B4E7168C0F3034583B200F44016B6F5A4
:1005F000401F08D121F07061154E766826F07066B4
:10060000134F7E6012E000F48016B6F5801F06D10D
:10061000032606FA05F4A14341F0706106E0460D99
:10062000360103FA06F6B14341F0706122B1460D7E
:10063000360103FA06F6314300F00046B6F1004FEA
:1006400002D1034EF16101E0014E7160F0BD000086
:10065000000001400161704700BFFEE708B50121BD
:10066000142004F051FF01211148FFF7ABFF4FF4B4
:100670000040ADF8000048208DF8030069460D48A1
:10068000FFF715FF2020ADF8000048208DF803008B
:1006900069460948FFF70BFF0120ADF8000028204C
:1006A0008DF8030069460348FFF701FF08BD00000D
:1006B00000023000000801400010014070B50446FF
:1006C00000261D480588408845431B48808846F61B
:1006D0000401884216D118488079012812D10020DF
:1006E000154988712A2048812B20888100210846DD
:1006F00004F06EFB0120104988712B2048812A20CC
:10070000888103E00021084604F062FB04F078FED3
:1007100000260DE04FF480700849086140004861F0
:100720000748046080204861086180000861761CE9
:10073000AE42EFD370BD0000C01300200010014096
:100740000C0C014010B50446002C66D16C49887130
:10075000F02008804FF4A07048800846808849F255
:10076000413188420BD06648808846F604018842B1
:1007700005D06348808845F2103188421AD12C2078
:100780005F4908812A2048812B208881084680887B
:1007900046F60401884205D05948808845F2103158
:1007A000884206D14FF4A070554908804FF4F0708C
:1007B0004880A1E05248808845F21051884210D10B
:1007C0004FF430504E4908814FF4285048814FF47F
:1007D0002C5088814FF4F07008804FF448704880A6
:1007E0008AE04748808841F6631188420DD12C2069
:1007F000434908812B2048812A2088814FF4F070DA
:1008000008804FF44870488076E022203C490881F7
:1008100020204881212088816EE00120384988719C
:100820004FF4A0700880F02048800846808849F284
:100830004131884205D03248808845F210318842E3
:1008400007D12C202E4908812A2048812B2088811D
:100850003FE02B48808846F60401884207D12C20CF
:10086000274908812B2048812A20888131E02448AB
:10087000808845F21051884210D14FF43050204901
:1008800008814FF4285048814FF42C5088814FF450
:10089000487008804FF4F07048801AE0184880884B
:1008A00041F6631188420DD12C20154908812A2078
:1008B00048812B2088814FF4487008804FF4F070F5
:1008C000488006E022200E4908812120488120200E
:1008D00088810B48808846F60401884205D0084884
:1008E000808845F21031884206D14FF4F0700449F7
:1008F00008804FF4A0704880002004F03DF810BD3F
:10090000C013002070B504460D461646D3488088B3
:1009100049F24131884205D0D048808845F21031F3
:10092000884240D1CD49488904F058FD4FF4807089
:10093000CB490861400048612012CA490860802004
:10094000C7494861086180000861401008614000A3
:100950004861E0B2C34908608020C149486108612C
:1009600080000861BD49888904F038FD4FF480702B
:10097000BB490861400048612812BA4908608020DC
:10098000B749486108618000086140100861400073
:100990004861E8B2B34908608020B1494861086104
:1009A000800008613DE1AD48808845F210518842E1
:1009B00050D1AA49488904F011FD4FF48070A8492C
:1009C0000861400048612012A64908608020A449BF
:1009D0004861086180000861A0494989491C88B2C2
:1009E00004F0FCFC4FF480709D49086140004861B0
:1009F000E0B29C4908608020994948610861800004
:100A000008619649888904F0E9FC4FF480709449A4
:100A1000086140004861281292490860802090498E
:100A200048610861800008618C498989491C88B245
:100A300004F0D4FC4FF4807089490861400048619B
:100A4000E8B28849086080208549486108618000D3
:100A50000861E6E08148808841F6631188427DD1D3
:100A60007E48807920B97D480088401E001B84B2F2
:100A70007A49488904F0B2FC4FF4807078490861E3
:100A8000400048612012774908608020744948611D
:100A90000861800008614010086140004861E0B2D0
:100AA0007049086080206E494861086180000861D3
:100AB000401008614000486120126A4908608020A7
:100AC0006749486108618000086140100861400082
:100AD0004861E0B26349086080206149486108616B
:100AE000800008615D49888904F078FC4FF48070CB
:100AF0005B4908614000486128125A49086080201B
:100B00005749486108618000086140100861400051
:100B10004861E8B253490860802051494861086142
:100B200080000861401008614000486128124D496A
:100B3000086080204A4948610861800008614010CF
:100B4000086140004861E8B2464908608020444995
:100B5000486108618000086163E0FFE73F488088E2
:100B600046F60401884249D13C488079012804D1E5
:100B70003A480088401E001B84B23849488904F076
:100B80002DFC4FF480703649086140004861201206
:100B9000344908608020324948610861800008615A
:100BA0004010086140004861E0B22E490860802092
:100BB0002B4948610861800008612849888904F050
:100BC0000DFC4FF4807026490861400048612812EE
:100BD000244908608020224948610861800008613A
:100BE0004010086140004861E8B21E49086080205A
:100BF0001B49486108618000086112E0174880794C
:100C0000012804D115480088401E001B84B21349F6
:100C10004889214604F0FCFB10498889294604F0E4
:100C2000F7FB4FF480700E494861400048610B4863
:100C300000890C49086080200949486108618000EA
:100C40000861401008614000486106480660802045
:100C5000486108618000086170BD0000C013002079
:100C6000001001400C0C014008B50121192004F0CE
:100C70004BFC0121FE48FFF7A5FC4FF4F860ADF8EE
:100C8000000010208DF8030003208DF80200694653
:100C9000F848FFF70CFC4FF4F861F648FFF7DAFC70
:100CA0004FF6FF70ADF800006946F348FFF7FFFB11
:100CB0004FF6FF71F048FFF7CDFC322004F090FEB4
:100CC0000121002004F0A4FB322004F089FE002062
:100CD00003F0E0FDE949888008468088FF280ADBA8
:100CE000084680884FF6FF71884204D0E348808828
:100CF000B0F5134F7ED1D32004F070FB03F092FDCA
:100D000003F090FD03F08EFDDC4988800846808862
:100D10004FF6FF7101EA0020D849888003F082FD78
:100D2000D64989880843D54988800846808849F291
:100D3000413188425ED0BF2004F050FB03F072FDC9
:100D400003F070FD03F06EFD03F06CFDCB4988806D
:100D5000084680884FF6FF7101EA0020C749888065
:100D600003F060FDC54989880843C4498880084666
:100D7000808846F60401884274D0D42004F02EFB0B
:100D800003F050FD03F04EFD03F04CFDBB4988809D
:100D9000084680884FF6FF7101EA0020B749888035
:100DA00003F040FDB54989880843B4498880084666
:100DB000808845F21031884254D04FF45A4004F0F4
:100DC0000DFB03F02FFD4FF45B4004F007FB03F035
:100DD00029FDAA498880084680884FF6FF7101EAFC
:100DE0000020A64988804FF45C4004F0F7FA03F035
:100DF00019FD00E036E0A149898808439F498880B1
:100E000008468088B0F5004F02D145F21050888026
:100E10009A48808845F21051884223D0A12004F0DE
:100E2000DDFA03F0FFFC9549888003F0FBFC934951
:100E30008880084680884FF6FF7101EA00208F49BC
:100E4000888003F0EFFC8D49898808438B498880AE
:100E50000846808845F26171884203D141F66310EB
:100E6000864988808548818885A0FFF7F5F9834801
:100E7000808849F2413188427ED1CF2004F0AEFA19
:100E8000002004F099FAC12004F096FA302004F012
:100E900093FAED2004F0A2FA642004F08DFA032006
:100EA00004F08AFA122004F087FA812004F084FA10
:100EB000E82004F093FA852004F07EFA102004F074
:100EC0007BFA7A2004F078FACB2004F087FA3920F4
:100ED00004F072FA2C2004F06FFA002004F06CFA8F
:100EE000342004F069FA022004F066FAF72004F0D6
:100EF00075FA202004F060FAEA2004F06FFA00206E
:100F000004F05AFA002004F057FAC02004F066FA00
:100F10001B2004F051FAC12004F060FA012004F013
:100F20004BFAC52004F05AFA302004F045FA30207C
:100F300004F042FAC72004F051FAB72004F03CFA5A
:100F4000362004F04BFA482004F036FA3A2004F038
:100F500045FA552004F030FAB12004F03FFA0020A1
:100F600004F02AFA1A2004F027FAB62004F036FA20
:100F70000A2004F021FA00E0A9E0A22004F01CFA03
:100F8000F22004F02BFA002004F016FA262004F0D8
:100F900025FA012004F010FAE02004F01FFA0F20D7
:100FA00004F00AFA2A2004F007FA282004F004FAD0
:100FB000082004F001FA0E2004F0FEF9082004F0E5
:100FC000FBF9542004F0F8F9A92004F0F5F94320C6
:100FD00004F0F2F90A2004F0EFF90F2004F0ECF924
:100FE000002004F0E9F9002004F0E6F9002004F004
:100FF000E3F9002004F0E0F9E12004F0EFF900202B
:1010000004F0DAF9152004F0D7F9172004F0D4F928
:10101000072004F0D1F9112004F0CEF9062004F0E5
:10102000CBF92B2004F0C8F9562004F0C5F93C2078
:1010300004F0C2F9052004F0BFF9102004F0BCF957
:101040000F2004F0B9F93F2004F0B6F93F2004F076
:10105000B3F90F2004F0B0F92B2004F0BFF9002001
:1010600004F0AAF9002004F0A7F9012010E0000024
:101070000002300000100140000C0140C0130020AD
:10108000204C43442049443A25780D0A00000000D2
:1010900004F092F93F2004F08FF92A2004F09EF921
:1010A000002004F089F9002004F086F9002004F003
:1010B00083F9EF2004F080F9112004F08FF97820F3
:1010C00004F08EFC292004F089F903F09ABBFE4855
:1010D000808846F6040188427ED1112004F07EF912
:1010E000142004F07DFCD02004F078F9072004F0EF
:1010F00063F9422004F060F91D2004F05DF9D1206D
:1011000004F06CF9002004F057F91A2004F054F9A7
:10111000092004F051F9D22004F060F9012004F014
:101120004BF9222004F048F9C02004F057F91020B0
:1011300004F042F93B2004F03FF9002004F03CF9B0
:10114000022004F039F9112004F036F9C52004F02A
:1011500045F9032004F030F9C82004F03FF90020DD
:1011600004F02AF9252004F027F9212004F024F9BD
:10117000052004F021F9002004F01EF90A2004F0F3
:101180001BF9652004F018F9252004F015F97720E3
:1011900004F012F9502004F00FF90F2004F00CF9BC
:1011A000002004F009F9F82004F018F9012004F0F7
:1011B00003F9FE2004F012F9002004F0FDF80220EB
:1011C00004F0FAF8202004F009F9362004F006F9BA
:1011D000082004F0F1F800E02AE03A2004F0FEF8DC
:1011E000552004F0E9F82B2004F0F8F8002004F072
:1011F000E3F8002004F0E0F8012004F0DDF83F20DF
:1012000004F0DAF82A2004F0E9F8002004F0D4F819
:10121000002004F0D1F8012004F0CEF8DF2004F023
:10122000CBF8782004F0DCFB292004F0D7F84CE759
:10123000A548808845F21031884240F07C87ED2037
:1012400004F0CCF8012004F0B7F8FE2004F0B4F864
:10125000EE2004F0C3F8DE2004F0AEF8212004F004
:10126000ABF8F12004F0BAF8012004F0A5F8DF2073
:1012700004F0B4F8102004F09FF8C42004F0AEF895
:101280008F2004F099F8C62004F0A8F8002004F09C
:1012900093F8E22004F090F8E22004F08DF8E220C8
:1012A00004F08AF8BF2004F099F8AA2004F084F82A
:1012B000B02004F093F80D2004F07EF8002004F034
:1012C0007BF80D2004F078F8002004F075F8112068
:1012D00004F072F8002004F06FF8192004F06CF8A4
:1012E000002004F069F8212004F066F8002004F0E2
:1012F00063F82D2004F060F8002004F05DF83D2034
:1013000004F05AF8002004F057F85D2004F054F877
:10131000002004F051F85D2004F04EF8002004F0A5
:101320004BF8B12004F05AF8802004F045F8002072
:1013300004F042F88B2004F03FF8002004F03CF861
:10134000962004F039F8002004F036F8B22004F0BA
:1013500045F8002004F030F8002004F02DF80220B9
:1013600004F02AF8002004F027F8032004F024F801
:10137000002004F021F8B32004F030F8002004F03D
:101380001BF8002004F018F8002004F015F80020E5
:1013900004F012F8002004F00FF8002004F00CF81C
:1013A000002004F009F8002004F006F8002004F002
:1013B00003F8002004F000F8002003F0FDFF0020F7
:1013C00003F0FAFF002003F0F7FF002003F0F4FF22
:1013D000002003F0F1FF002003F0EEFF002003F0F7
:1013E000EBFF002003F0E8FF002003F0E5FF002002
:1013F00003F0E2FF002003F0DFFF002003F0DCFF3A
:10140000002003F0D9FF002003F0D6FFB42003F042
:10141000E5FF8B2003F0D0FF002003F0CDFF9620E6
:1014200003F0CAFF002003F0C7FFA12003F0C4FFB0
:10143000002003F0C1FFB52003F0D0FF022003F02D
:10144000BBFF002003F0B8FF032003F0B5FF00202E
:1014500003F0B2FF042003F0AFFF002003F0ACFF65
:10146000B62003F0BBFF002003F0A6FF002003F02E
:10147000A3FFB72003F0B2FF002003F09DFF002080
:1014800003F09AFF3F2003F097FF002003F094FF42
:101490005E2003F091FF002003F08EFF642003F034
:1014A0008BFF002003F088FF8C2003F085FF0020D5
:1014B00003F082FFAC2003F07FFF002003F07CFFED
:1014C000DC2003F079FF01E0C0130020002003F0CE
:1014D00073FF702003F070FF002003F06DFF902079
:1014E00003F06AFF002003F067FFEB2003F064FFC6
:1014F000002003F061FFDC2003F05EFF002003F01A
:101500005BFFB82003F06AFF002003F055FF0020C6
:1015100003F052FF002003F04FFF002003F04CFFC8
:10152000002003F049FF002003F046FF002003F0F5
:1015300043FF002003F040FFBA2003F04FFF2420B8
:1015400003F03AFF002003F037FF002003F034FFE0
:10155000002003F031FFC12003F040FF202003F002
:101560002BFF002003F028FF542003F025FF00206C
:1015700003F022FFFF2003F01FFF002003F01CFFF9
:10158000C22003F02BFF0A2003F016FF002003F017
:1015900013FF042003F010FF002003F00DFFC32011
:1015A00003F01CFF3C2003F007FF002003F004FFC2
:1015B0003A2003F001FF002003F0FEFE392003F083
:1015C000FBFE002003F0F8FE372003F0F5FE0020BC
:1015D00003F0F2FE3C2003F0EFFE002003F0ECFEEF
:1015E000362003F0E9FE002003F0E6FE322003F08F
:1015F000E3FE002003F0E0FE2F2003F0DDFE0020DC
:1016000003F0DAFE2C2003F0D7FE002003F0D4FE16
:10161000292003F0D1FE002003F0CEFE262003F0A7
:10162000CBFE002003F0C8FE242003F0C5FE0020FE
:1016300003F0C2FE242003F0BFFE002003F0BCFE36
:10164000232003F0B9FE002003F0B6FE3C2003F097
:10165000B3FE002003F0B0FE362003F0ADFE002004
:1016600003F0AAFE322003F0A7FE002003F0A4FE40
:101670002F2003F0A1FE002003F09EFE2C2003F09B
:101680009BFE002003F098FE292003F095FE002029
:1016900003F092FE262003F08FFE002003F08CFE64
:1016A000242003F089FE002003F086FE242003F0AE
:1016B00083FE002003F080FE232003F07DFE002047
:1016C00003F07AFEC42003F089FE622003F074FE6A
:1016D000002003F071FE052003F06EFE002003F0F1
:1016E0006BFE842003F068FE002003F065FEF0200E
:1016F00003F062FE002003F05FFE182003F05CFEA2
:10170000002003F059FEA42003F056FE002003F051
:1017100053FE182003F050FE002003F04DFE502031
:1017200003F04AFE002003F047FE0C2003F044FEC5
:10173000002003F041FE172003F03EFE002003F0DE
:101740003BFE952003F038FE002003F035FEF32029
:1017500003F032FE002003F02FFEE62003F02CFE03
:10176000002003F029FEC52003F038FE322003F0EC
:1017700023FE002003F020FE442003F01DFE002085
:1017800003F01AFE652003F017FE002003F014FE9C
:10179000762003F011FE002003F00EFE882003F0F7
:1017A0000BFE002003F008FEC62003F017FE2020E9
:1017B00003F002FE002003F0FFFD172003F0FCFD04
:1017C000002003F0F9FD012003F0F6FD002003F0F6
:1017D000F3FDC72003F002FE002003F0EDFD002022
:1017E00003F0EAFD002003F0E7FD002003F0E4FD34
:1017F000C82003F0F3FD002003F0DEFD002003F01D
:10180000DBFD002003F0D8FD002003F0D5FDC9204A
:1018100003F0E4FD002003F0CFFD002003F0CCFD39
:10182000002003F0C9FD002003F0C6FD002003F0F6
:10183000C3FD002003F0C0FD002003F0BDFD00202B
:1018400003F0BAFD002003F0B7FD002003F0B4FD63
:10185000002003F0B1FD002003F0AEFD002003F0F6
:10186000ABFD002003F0A8FD002003F0A5FD002043
:1018700003F0A2FDE02003F0B1FD162003F09CFD73
:10188000002003F099FD1C2003F096FD002003F0DA
:1018900093FD212003F090FD002003F08DFD362004
:1018A00003F08AFD002003F087FD462003F084FD4D
:1018B000002003F081FD522003F07EFD002003F0A4
:1018C0007BFD642003F078FD002003F075FD7A2095
:1018D00003F072FD002003F06FFD8B2003F06CFD20
:1018E000002003F069FD992003F066FD002003F05D
:1018F00063FDA82003F060FD002003F05DFDB9202A
:1019000003F05AFD002003F057FDC42003F054FDFE
:10191000002003F051FDCA2003F04EFD002003F02B
:101920004BFDD22003F048FD002003F045FDD920F7
:1019300003F042FD002003F03FFDE02003F03CFDFA
:10194000002003F039FDF32003F036FD002003F002
:1019500033FDE12003F042FD162003F02DFD0020B1
:1019600003F02AFD1C2003F027FD002003F024FDD6
:10197000222003F021FD002003F01EFD362003F09D
:101980001BFD002003F018FD452003F015FD00208D
:1019900003F012FD522003F00FFD002003F00CFDB8
:1019A000642003F009FD002003F006FD7A2003F017
:1019B00003FD002003F000FD8B2003F0FDFC002060
:1019C00003F0FAFC992003F0F7FC002003F0F4FC8C
:1019D000A82003F0F1FC002003F0EEFCB92003F096
:1019E000EBFC002003F0E8FCC42003F0E5FC002041
:1019F00003F0E2FCCA2003F0DFFC002003F0DCFC73
:101A0000D22003F0D9FC002003F0D6FCD82003F04C
:101A1000D3FC002003F0D0FCE02003F0CDFC00203C
:101A200003F0CAFCF32003F0C7FC002003F0C4FC61
:101A3000E22003F0D3FC052003F0BEFC002003F0FD
:101A4000BBFC0B2003F0B8FC002003F0B5FC1B200E
:101A500003F0B2FC002003F0AFFC342003F0ACFC38
:101A6000002003F0A9FC442003F0A6FC002003F0B2
:101A7000A3FC4F2003F0A0FC002003F09DFC61209C
:101A800003F09AFC002003F097FC792003F094FC0B
:101A9000002003F091FC882003F08EFC002003F06E
:101AA0008BFC972003F088FC002003F085FCA62027
:101AB00003F082FC002003F07FFCB72003F07CFCE5
:101AC000002003F079FCC22003F076FC002003F034
:101AD00073FCC72003F070FC002003F06DFCD120E4
:101AE00003F06AFC002003F067FCD62003F064FCDE
:101AF000002003F061FCDD2003F05EFC002003F019
:101B00005BFCF32003F058FC002003F055FCE320BD
:101B100003F064FC052003F04FFC002003F04CFCB4
:101B20000A2003F049FC002003F046FC1C2003F0CF
:101B300043FC002003F040FC332003F03DFC002078
:101B400003F03AFC442003F037FC002003F034FC9F
:101B5000502003F031FC002003F02EFC622003F043
:101B60002BFC002003F028FC782003F025FC00204B
:101B700003F022FC882003F01FFC002003F01CFC73
:101B8000972003F019FC002003F016FCA62003F0B8
:101B900013FC002003F010FCB72003F00DFC002024
:101BA00003F00AFCC22003F007FC002003F004FC51
:101BB000C72003F001FC002003F0FEFBD12003F05E
:101BC000FBFB002003F0F8FBD52003F0F5FB002021
:101BD00003F0F2FBDD2003F0EFFB002003F0ECFB51
:101BE000F32003F0E9FB002003F0E6FBE42003F020
:101BF000F5FB012003F0E0FB002003F0DDFB0120FA
:101C000003F0DAFB002003F0D7FB022003F0D4FB43
:101C1000002003F0D1FB2A2003F0CEFB002003F0CC
:101C2000CBFB3C2003F0C8FB002003F0C5FB4B209E
:101C300003F0C2FB002003F0BFFB5D2003F0BCFB00
:101C4000002003F0B9FB742003F0B6FB002003F082
:101C5000B3FB842003F0B0FB002003F0ADFB932026
:101C600003F0AAFB002003F0A7FBA22003F0A4FBD3
:101C7000002003F0A1FBB32003F09EFB002003F043
:101C80009BFBBE2003F098FB002003F095FBC420D3
:101C900003F092FB002003F08FFBCD2003F08CFBC0
:101CA000002003F089FBD32003F086FB002003F023
:101CB00083FBDD2003F080FB002003F07DFBF3209D
:101CC00003F07AFB002003F077FBE52003F086FBAE
:101CD000002003F071FB002003F06EFB002003F0F6
:101CE0006BFB002003F068FB022003F065FB002083
:101CF00003F062FB292003F05FFB002003F05CFB94
:101D00003C2003F059FB002003F056FB4B2003F06E
:101D100053FB002003F050FB5D2003F04DFB00203F
:101D200003F04AFB742003F047FB002003F044FB60
:101D3000842003F041FB002003F03EFB932003F0DE
:101D40003BFB002003F038FBA22003F035FB002012
:101D500003F032FBB32003F02FFB002003F02CFB39
:101D6000BE2003F029FB002003F026FBC42003F073
:101D700023FB002003F020FBCD2003F01DFB0020FF
:101D800003F01AFBD32003F017FB002003F014FB31
:101D9000DC2003F011FB002003F00EFBF32003F026
:101DA0000BFB002003F008FBE62003F017FB1120DB
:101DB00003F002FB002003F0FFFA342003F0FCFAEA
:101DC000002003F0F9FA562003F0F6FA002003F0A1
:101DD000F3FA762003F0F0FA002003F0EDFA772012
:101DE00003F0EAFA002003F0E7FA662003F0E4FAD1
:101DF000002003F0E1FA882003F0DEFA002003F06F
:101E0000DBFA992003F0D8FA002003F0D5FABB20C2
:101E100003F0D2FA002003F0CFFA992003F0CCFAB5
:101E2000002003F0C9FA662003F0C6FA002003F090
:101E3000C3FA552003F0C0FA002003F0BDFA552084
:101E400003F0BAFA002003F0B7FA452003F0B4FA21
:101E5000002003F0B1FA432003F0AEFA002003F0B3
:101E6000ABFA442003F0A8FA002003F0A5FAE7201B
:101E700003F0B4FA322003F09FFA002003F09CFA3A
:101E8000552003F099FA002003F096FA762003F02B
:101E900093FA002003F090FA662003F08DFA0020F8
:101EA00003F08AFA672003F087FA002003F084FA2F
:101EB000672003F081FA002003F07EFA872003F008
:101EC0007BFA002003F078FA992003F075FA0020DD
:101ED00003F072FABB2003F06FFA002003F06CFAF3
:101EE000992003F069FA002003F066FA772003F0E6
:101EF00063FA002003F060FA442003F05DFA00204A
:101F000003F05AFA562003F057FA002003F054FA6F
:101F1000232003F051FA002003F04EFA332003F09F
:101F20004BFA002003F048FA452003F045FA002060
:101F300003F042FAE82003F051FA002003F03CFAE3
:101F4000002003F039FA992003F036FA002003F05C
:101F500033FA872003F030FA002003F02DFA8820AE
:101F600003F02AFA002003F027FA772003F024FA7E
:101F7000002003F021FA662003F01EFA002003F08F
:101F80001BFA882003F018FA002003F015FAAA20A3
:101F900003F012FA002003F00FFABB2003F00CFA52
:101FA000002003F009FA992003F006FA002003F05C
:101FB00003FA662003F000FA002003F0FDF9552033
:101FC00003F0FAF9002003F0F7F9552003F0F4F9D3
:101FD000002003F0F1F9442003F0EEF9002003F0B3
:101FE000EBF9442003F0E8F9002003F0E5F955206F
:101FF00003F0E2F9002003F0DFF9E92003F0EEF945
:10200000AA2003F0D9F9002003F0D6F9002003F04C
:10201000D3F9002003F0D0F9002003F0DFF9AA2063
:1020200003F0CAF9CF2003F0D9F9002003F0C4F976
:10203000002003F0C1F9002003F0BEF9002003F0F6
:10204000BBF9002003F0B8F9002003F0B5F9002037
:1020500003F0B2F9002003F0AFF9002003F0ACF96F
:10206000002003F0A9F9002003F0A6F9002003F0F6
:10207000A3F9002003F0A0F9002003F09DF900204F
:1020800003F09AF9002003F097F9002003F094F987
:10209000F02003F0A3F9002003F08EF9502003F0A4
:1020A0008BF9002003F088F9002003F085F9002067
:1020B00003F082F9F32003F091F9002003F07CF99A
:1020C000F92003F08BF9062003F076F9102003F0D5
:1020D00073F9292003F070F9002003F06DF93A201C
:1020E00003F07CF9552003F067F9112003F076F92D
:1020F000642003F075FC292003F070F9352003F00B
:102100006DF9002003F058F9512003F067F9FF2022
:1021100003F052F9532003F061F92C2003F04CF93D
:10212000552003F05BF9822003F046F92C2003F0E0
:1021300055F902F066BBFE48808845F2105188428E
:102140007ED155214FF4704003F062F9AA214FF27D
:10215000010003F05DF952214FF2020003F058F93B
:1021600008214FF2030003F053F901214FF204005C
:1021700003F04EF90D214FF4304003F049F90D21E1
:102180004BF2010003F044F90D214BF2020003F081
:102190003FF934214FF4364003F03AF934214BF241
:1021A000016003F035F934214BF2026003F030F99D
:1021B0000D214FF4314003F02BF90D214BF20110AA
:1021C00003F026F90D214BF2021003F021F934211E
:1021D0004FF4374003F01CF934214BF2017003F047
:1021E00017F934214BF2027003F012F900214FF479
:1021F000324003F00DF900214BF2012003F008F901
:1022000000214BF2022003F003F924214FF438405F
:1022100003F0FEF824214BF6010003F0F9F8242125
:102220004BF6020003F0F4F801214FF43F4003F0B5
:10223000EFF80F214FF4334003F0EAF80F2100E0EC
:10224000FEE34BF2013003F0E3F80F214BF20230D2
:1022500003F0DEF834214FF4394003F0D9F834218B
:102260004BF6011003F0D4F834214BF6021003F0C2
:10227000CFF808214FF4354003F0CAF808214BF29B
:10228000015003F0C5F808214BF2025003F0C0F8EA
:1022900003214FF4424003F0BBF824214FF43A40AD
:1022A00003F0B6F824214BF6012003F0B1F8242105
:1022B0004BF6022003F0ACF800214FF43C4003F051
:1022C000A7F878214BF6014003F0A2F800214BF665
:1022D000024003F09DF800214FF43D4003F098F8D0
:1022E00078214BF6015003F093F800214BF6025091
:1022F00003F08EF800214FF43E4003F089F864218A
:102300004BF6016003F084F800214FF4514003F0D4
:102310007FF833214DF2011003F07AF800214DF2DD
:10232000021003F075F834214DF2031003F070F839
:1023300000214DF2041003F06BF83A214DF2051024
:1023400003F066F800214DF2061003F061F84A210F
:102350004DF2071003F05CF800214DF2081003F075
:1023600057F85C214DF2091003F052F800214DF2AC
:102370000A1003F04DF881214DF20B1003F048F8DC
:1023800000214DF20C1003F043F8A6214DF20D1080
:1023900003F03EF800214DF20E1003F039F8E5216C
:1023A0004DF20F1003F034F801214DF2101003F03C
:1023B0002FF813214DF2111003F02AF801214DF2EC
:1023C000121003F025F854214DF2131003F020F8F9
:1023D00001214DF2141003F01BF882214DF215106B
:1023E00003F016F801214DF2161003F011F8CA217E
:1023F0004DF2171003F00CF802214DF2181003F003
:1024000007F800214DF2191003F002F802214DF2F5
:102410001A1002F0FDFF01214DF21B1002F0F8FF2F
:1024200002214DF21C1002F0F3FF34214DF21D1079
:1024300002F0EEFF02214DF21E1002F0E9FF6721CB
:102440004DF21F1002F0E4FF02214DF2201002F0C5
:10245000DFFF84214DF2211002F0DAFF02214DF25C
:10246000221002F0D5FFA4214DF2231002F0D0FF7C
:1024700002214DF2241002F0CBFFB7214DF22510BE
:1024800002F0C6FF02214DF2261002F0C1FFCF215B
:102490004DF2271002F0BCFF02214DF2281002F08D
:1024A000B7FFDE214DF2291002F0B2FF02214DF2FA
:1024B0002A1002F0ADFFF2214DF22B1002F0A8FF1E
:1024C00002214DF22C1002F0A3FFFE214DF22D103F
:1024D00002F09EFF03214DF22E1002F099FF102111
:1024E0004DF22F1002F094FF03214DF2301002F054
:1024F0008FFF33214DF2311002F08AFF03214DF29C
:10250000321002F085FF6D214DF2331002F080FF92
:1025100000214FF4524002F07BFF33214DF20120A5
:1025200002F076FF00214DF2022002F071FF01E07F
:10253000C013002034214DF2032002F069FF002176
:102540004DF2042002F064FF3A214DF2052002F022
:102550005FFF00214DF2062002F05AFF4A214DF2A2
:10256000072002F055FF00214DF2082002F050FF35
:102570005C214DF2092002F04BFF00214DF20A20B0
:1025800002F046FF81214DF20B2002F041FF0021B5
:102590004DF20C2002F03CFFA6214DF20D2002F07E
:1025A00037FF00214DF20E2002F032FFE5214DF2FF
:1025B0000F2002F02DFF01214DF2102002F028FF24
:1025C00013214DF2112002F023FF01214DF21220C0
:1025D00002F01EFF54214DF2132002F019FF0121D9
:1025E0004DF2142002F014FF82214DF2152002F06A
:1025F0000FFF01214DF2162002F00AFFCA214DF211
:10260000172002F005FF02214DF2182002F000FF12
:1026100000214DF2192002F0FBFE02214DF21A209A
:1026200002F0F6FE01214DF21B2002F0F1FE022124
:102630004DF21C2002F0ECFE34214DF21D2002F080
:10264000E7FE02214DF21E2002F0E2FE67214DF26C
:102650001F2002F0DDFE02214DF2202002F0D8FE04
:1026600084214DF2212002F0D3FE02214DF22220DE
:1026700002F0CEFEA4214DF2232002F0C9FE022179
:102680004DF2242002F0C4FEB7214DF2252002F0C5
:10269000BFFE02214DF2262002F0BAFECF214DF2FC
:1026A000272002F0B5FE02214DF2282002F0B0FEF4
:1026B000DE214DF2292002F0ABFE02214DF22A204C
:1026C00002F0A6FEF2214DF22B2002F0A1FE022123
:1026D0004DF22C2002F09CFEFE214DF22D2002F046
:1026E00097FE03214DF22E2002F092FE10214DF2B2
:1026F0002F2002F08DFE03214DF2302002F088FEE3
:1027000033214DF2312002F083FE03214DF23220BD
:1027100002F07EFE6D214DF2332002F079FE0021A1
:102720004FF4534002F074FE33214DF2013002F0B9
:102730006FFE00214DF2023002F06AFE34214DF2AC
:10274000033002F065FE00214DF2043002F060FE1D
:102750003A214DF2053002F05BFE00214DF20630C9
:1027600002F056FE4A214DF2073002F051FE0021E0
:102770004DF2083002F04CFE5C214DF2093002F0BF
:1027800047FE00214DF20A3002F042FE81214DF257
:102790000B3002F03DFE00214DF20C3002F038FE0D
:1027A000A6214DF20D3002F033FE00214DF20E3025
:1027B00002F02EFEE5214DF20F3002F029FE01213C
:1027C0004DF2103002F024FE13214DF2113002F0D0
:1027D0001FFE01214DF2123002F01AFE54214DF27B
:1027E000133002F015FE01214DF2143002F010FEFC
:1027F00082214DF2153002F00BFE01214DF2163010
:1028000002F006FECA214DF2173002F001FE02214D
:102810004DF2183002F0FCFD00214DF2193002F0AB
:10282000F7FD02214DF21A3002F0F2FD01214DF2C6
:102830001B3002F0EDFD02214DF21C3002F0E8FDEC
:1028400034214DF21D3002F0E3FD02214DF21E3025
:1028500002F0DEFD67214DF21F3002F0D9FD0221AA
:102860004DF2203002F0D4FD84214DF2213002F0EF
:10287000CFFD02214DF2223002F0CAFDA4214DF21B
:10288000233002F0C5FD02214DF2243002F0C0FDDC
:10289000B7214DF2253002F0BBFD02214DF226306A
:1028A00002F0B6FDCF214DF2273002F0B1FD02213A
:1028B0004DF2283002F0ACFDDE214DF2293002F05D
:1028C000A7FD02214DF22A3002F0A2FDF2214DF2C5
:1028D0002B3002F09DFD02214DF22C3002F098FDCC
:1028E000FE214DF22D3002F093FD03214DF22E30EA
:1028F00002F08EFD10214DF22F3002F089FD0321F0
:102900004DF2303002F084FD33214DF2313002F0CF
:102910007FFD03214DF2323002F07AFD6D214DF240
:10292000333002F075FD00214FF4544002F070FD89
:1029300033214DF2014002F06BFD00214DF20240C7
:1029400002F066FD34214DF2034002F061FD0021EA
:102950004DF2044002F05CFD3A214DF2054002F0D8
:1029600057FD00214DF2064002F052FD4A214DF282
:10297000074002F04DFD00214DF2084002F048FDF5
:102980005C214DF2094002F043FD00214DF20A4066
:1029900002F03EFD81214DF20B4002F039FD002195
:1029A0004DF20C4002F034FDA6214DF20D4002F034
:1029B0002FFD00214DF20E4002F02AFDE5214DF2DF
:1029C0000F4002F025FD01214DF2104002F020FDE4
:1029D00013214DF2114002F01BFD01214DF2124076
:1029E00002F016FD54214DF2134002F011FD0121B9
:1029F0004DF2144002F00CFD82214DF2154002F020
:102A000007FD01214DF2164002F002FDCA214DF2F0
:102A1000174002F0FDFC02214DF2184002F0F8FCD4
:102A200000214DF2194002F0F3FC02214DF21A4050
:102A300002F0EEFC01214DF21B4002F0E9FC00E047
:102A400004E302214DF21C4002F0E2FC34214DF27D
:102A50001D4002F0DDFC02214DF21E4002F0D8FCC8
:102A600067214DF21F4002F0D3FC02214DF22040BD
:102A700002F0CEFC84214DF2214002F0C9FC02217B
:102A80004DF2224002F0C4FCA4214DF2234002F09A
:102A9000BFFC02214DF2244002F0BAFCB7214DF2F6
:102AA000254002F0B5FC02214DF2264002F0B0FCB8
:102AB000CF214DF2274002F0ABFC02214DF228401D
:102AC00002F0A6FCDE214DF2294002F0A1FC022119
:102AD0004DF22A4002F09CFCF2214DF22B4002F014
:102AE00097FC02214DF22C4002F092FCFE214DF2A7
:102AF0002D4002F08DFC03214DF22E4002F088FCA7
:102B000010214DF22F4002F083FC03214DF23040A2
:102B100002F07EFC33214DF2314002F079FC0321BA
:102B20004DF2324002F074FC6D214DF2334002F060
:102B30006FFC00214FF4554002F06AFC33214DF246
:102B4000015002F065FC00214DF2025002F060FCE1
:102B500034214DF2035002F05BFC00214DF2045091
:102B600002F056FC3A214DF2055002F051FC0021D2
:102B70004DF2065002F04CFC4A214DF2075002F093
:102B800047FC00214DF2085002F042FC5C214DF25E
:102B9000095002F03DFC00214DF20A5002F038FCD1
:102BA00081214DF20B5002F033FC00214DF20C500C
:102BB00002F02EFCA6214DF20D5002F029FC00215E
:102BC0004DF20E5002F024FCE5214DF20F5002F0C0
:102BD0001FFC01214DF2105002F01AFC13214DF29E
:102BE000115002F015FC01214DF2125002F010FCC0
:102BF00054214DF2135002F00BFC01214DF2145000
:102C000002F006FC82214DF2155002F001FC012178
:102C10004DF2165002F0FCFBCA214DF2175002F0A3
:102C2000F7FB02214DF2185002F0F2FB00214DF2A9
:102C3000195002F0EDFB02214DF21A5002F0E8FBB0
:102C400001214DF21B5002F0E3FB02214DF21C501A
:102C500002F0DEFB34214DF21D5002F0D9FB0221BF
:102C60004DF21E5002F0D4FB67214DF21F5002F0CE
:102C7000CFFB02214DF2205002F0CAFB84214DF21D
:102C8000215002F0C5FB02214DF2225002F0C0FBA0
:102C9000A4214DF2235002F0BBFB02214DF224503F
:102CA00002F0B6FBB7214DF2255002F0B1FB022134
:102CB0004DF2265002F0ACFBCF214DF2275002F02E
:102CC000A7FB02214DF2285002F0A2FBDE214DF2BB
:102CD000295002F09DFB02214DF22A5002F098FB90
:102CE000F2214DF22B5002F093FB02214DF22C50B9
:102CF00002F08EFBFE214DF22D5002F089FB0321E4
:102D00004DF22E5002F084FB10214DF22F5002F0B4
:102D10007FFB03214DF2305002F07AFB33214DF25C
:102D2000315002F075FB03214DF2325002F070FB7E
:102D30006D214DF2335002F06BFB00214FF45640F1
:102D400002F066FB33214DF2016002F061FB0021CD
:102D50004DF2026002F05CFB34214DF2036002F0A0
:102D600057FB00214DF2046002F052FB3A214DF274
:102D7000056002F04DFB00214DF2066002F048FBB9
:102D80004A214DF2076002F043FB00214DF208603A
:102D900002F03EFB5C214DF2096002F039FB00219C
:102DA0004DF20A6002F034FB81214DF20B6002F01B
:102DB0002FFB00214DF20C6002F02AFBA6214DF200
:102DC0000D6002F025FB00214DF20E6002F020FBA9
:102DD000E5214DF20F6002F01BFB01214DF2106066
:102DE00002F016FB13214DF2116002F011FB0121DC
:102DF0004DF2126002F00CFB54214DF2136002F010
:102E000007FB01214DF2146002F002FB82214DF21A
:102E1000156002F0FDFA01214DF2166002F0F8FA99
:102E2000CA214DF2176002F0F3FA02214DF2186048
:102E300002F0EEFA00214DF2196002F0E9FA0221E7
:102E40004DF21A6002F0E4FA01214DF21B6002F02B
:102E5000DFFA02214DF21C6002F0DAFA34214DF261
:102E60001D6002F0D5FA02214DF21E6002F0D0FA88
:102E700067214DF21F6002F0CBFA02214DF2206073
:102E800002F0C6FA84214DF2216002F0C1FA02215B
:102E90004DF2226002F0BCFAA4214DF2236002F050
:102EA000B7FA02214DF2246002F0B2FAB7214DF2D6
:102EB000256002F0ADFA02214DF2266002F0A8FA78
:102EC000CF214DF2276002F0A3FA02214DF22860D3
:102ED00002F09EFADE214DF2296002F099FA0221F9
:102EE0004DF22A6002F094FAF2214DF22B6002F0CA
:102EF0008FFA02214DF22C6002F08AFAFE214DF287
:102F00002D6002F085FA03214DF22E6002F080FA66
:102F100010214DF22F6002F07BFA03214DF2306058
:102F200002F076FA33214DF2316002F071FA03219A
:102F30004DF2326002F06CFA6D214DF2336002F016
:102F400067FA55214FF4704002F062FAAA214FF25D
:102F5000010002F05DFA52214FF2020002F058FA2D
:102F600008214FF2030002F053FA00214FF204004F
:102F700002F04EFACC214FF4314002F049FA002120
:102F80004BF2011002F044FA05214FF4364002F0F2
:102F90003FFA70214FF4374002F03AFA70214BF2B9
:102FA000017002F035FA01214FF4384002F030FA96
:102FB00003214BF6010002F02BFA03214BF602002D
:102FC00002F026FA03214BF6030002F021FA022157
:102FD0004FF43C4002F01CFA00214BF6014002F095
:102FE00017FA00214BF6024002F012FAD0214FF4FA
:102FF000494002F00DFA02214CF6011002F008FAE5
:1030000050214CF6021002F003FA50214CF6031046
:1030100002F0FEF950214CF6041002F0F9F90021FB
:103020004FF4545002F0F4F955214FF4685002F077
:10303000EFF94FF4885002F0D1F9782002F0F6FC55
:103040004FF4245002F0CAF901F0DBBBFE4880883F
:1030500049F2253188427DD147F6F001E52002F0A2
:10306000D7F94FF48071012002F0D2F94FF4E061FA
:10307000022002F0CDF941F23001032002F0C8F93C
:103080000021042002F0C4F940F20221082002F0DD
:10309000BFF90021092002F0BBF900210A2002F04B
:1030A000B7F900210C2002F0B3F900210D2002F045
:1030B000AFF900210F2002F0ABF90021102002F03F
:1030C000A7F90721112002F0A3F90021122002F034
:1030D0009FF90021132002F09BF90021072002F044
:1030E00097F941F29061102002F092F940F2272105
:1030F000112002F08DF99D21122002F089F94FF480
:10310000C851132002F084F92521292002F080F90A
:103110000D212B2002F07CF90721302002F078F9F4
:1031200040F20331312002F073F90321322002F022
:103130006FF940F20621352002F06AF908213620A5
:1031400002F066F940F20641372002F061F94FF4CF
:10315000417100E058E0382002F05AF90721392087
:1031600002F056F940F202613C2002F051F90821C8
:103170003D2002F04DF90021502002F049F9EF21E5
:10318000512002F045F90021522002F041F940F2AD
:103190003F11532002F03CF94FF42741602002F028
:1031A00037F90121612002F033F900216A2002F091
:1031B0002FF90021802002F02BF90021812002F05C
:1031C00027F90021822002F023F90021832002F058
:1031D0001FF90021842002F01BF90021852002F054
:1031E00017F91021902002F013F94FF4C0619220DA
:1031F00002F00EF940F23311072002F009F9222102
:10320000002002F005F91FE78F48808849F2283135
:1032100088427DD141F28F01EC2002F0F9F841F2B1
:103220003421EF2002F0F4F84FF48071012002F015
:10323000EFF84FF4E061022002F0EAF841F23001C9
:10324000032002F0E5F80021042002F0E1F840F24A
:103250000221082002F0DCF80021092002F0D8F851
:1032600000210A2002F0D4F801210C2002F0D0F84D
:1032700000210D2002F0CCF800210F2002F0C8F848
:103280000021102002F0C4F80721112002F0C0F83C
:103290000021122002F0BCF80021132002F0B8F83F
:1032A0000121072002F0B4F8322002F099FB41F22C
:1032B0009041102002F0ACF840F22721112002F0DA
:1032C000A7F8322002F08CFB8A21122002F0A0F82D
:1032D000322002F085FB4FF4D051132002F098F811
:1032E0000621292002F094F80D212B2002F090F8FD
:1032F000322002F075FB0021202002F089F8002125
:10330000212002F085F8322002F06AFB002100E063
:1033100075E0302002F07CF840F20461312002F0C8
:1033200077F840F20531322002F072F800213520A2
:1033300002F06EF840F60941362002F069F84FF4C9
:103340000171372002F064F840F20131382002F0B8
:103350005FF840F20771392002F05AF800213C2052
:1033600002F056F840F60A213D2002F051F83220D2
:1033700002F036FB0021502002F04AF8EF215120E4
:1033800002F046F80021522002F042F840F23F11CC
:10339000532002F03DF84FF42741602002F038F846
:1033A0000121612002F034F800216A2002F030F897
:1033B0000021802002F02CF80021812002F028F862
:1033C0000021822002F024F80021832002F020F85E
:1033D0000021842002F01CF80021852002F018F85A
:1033E0001021902002F014F84FF4C061922002F0F6
:1033F0000FF840F23311072002F00AF824E61248D1
:10340000808849F2203188427ED10021084601F0AF
:10341000FFFF4FF48071012001F0FAFF4FF4E061EB
:10342000022001F0F5FF41F23001032001F0F0FF2E
:103430000021042001F0ECFF40F20221082001F0FD
:10344000E7FF0021092001E0C013002001F0E0FFA8
:1034500000210A2001F0DCFF01210C2001F0D8FF3F
:1034600000210D2001F0D4FF00210F2001F0D0FF3A
:10347000322002F0B5FA40F20111072001F0C8FF36
:10348000322002F0ADFA4FF48651102001F0C0FF57
:103490000721112001F0BCFF4FF48871122001F0C8
:1034A000B7FF4FF43061132001F0B2FF0021292053
:1034B00001F0AEFF44F210012B2001F0A9FF002122
:1034C000502001F0A5FFEF21512001F0A1FF0021C4
:1034D000522001F09DFF40F23F11532001F098FF70
:1034E0004FF41C51602001F093FF0121612001F095
:1034F0008FFF00216A2001F08BFF0021802001F066
:1035000087FF0021812000E030E001F081FF0021F1
:10351000822001F07DFF0021832001F079FF00214E
:10352000842001F075FF0021852001F071FF10213A
:10353000902001F06DFF0021922001F069FF012130
:10354000932001F065FF4FF48871952001F060FF32
:103550000021972001F05CFF0021982001F058FF26
:1035600040F27311072001F053FF6DE5FE4880889B
:1035700049F2313188427DD141F21401E72001F056
:1035800047FF4FF48071012001F042FF4FF40071BA
:10359000022001F03DFF41F23801032001F038FF25
:1035A00040F20221082001F033FF0021092001F040
:1035B0002FFF00210A2001F02BFF00210C2001F039
:1035C00027FF00210D2001F023FF00210F2001F033
:1035D0001FFF0021102001F01BFF0721112001F027
:1035E00017FF0021122001F013FF0021132001F02A
:1035F0000FFFC82002F0F4F941F29061102001F0B1
:1036000007FF40F22721112001F002FF322002F0D3
:10361000E7F90C21122001F0FBFE322002F0E0F964
:103620004FF40061132001F0F3FE1121292001F075
:10363000EFFE0B212B2001F0EBFE322002F0D0F93F
:103640000021202001F0E4FE40F23F11212001F092
:10365000DFFE0021302001F0DBFE4FF483713120CA
:1036600001F0D6FE0021322001F0D2FE4FF40171AC
:10367000352000E064E001F0CBFE41F20A61362023
:1036800001F0C6FE40F20771372001F0C1FE4FF491
:103690008371382001F0BCFE40F20771392001F03F
:1036A000B7FE40F202413C2001F0B2FE40F60F416D
:1036B0003D2001F0ADFE0021502001F0A9FEEF21D8
:1036C000512001F0A5FE0021522001F0A1FE40F2A0
:1036D0003F11532001F09CFE4FF41C51602001F07B
:1036E00097FE0121612001F093FE00216A2001F084
:1036F0008FFE0021802001F08BFE0021812001F04F
:1037000087FE0021822001F083FE0021832001F04A
:103710007FFE0021842001F07BFE0021852001F046
:1037200077FE1021902001F073FE4FF4C0619220CB
:1037300001F06EFE40F23311072001F069FE83E4D0
:103740008948808845F2084188427DD14FF48071D4
:10375000012001F05DFE4FF4E061022001F058FE0F
:1037600041F23001032001F053FE0021042001F05A
:103770004FFE40F20721082001F04AFE00210920F7
:1037800001F046FE00210A2001F042FE00210C203B
:1037900001F03EFE00210D2001F03AFE00210F2035
:1037A00001F036FE142002F01BF941F2B061102046
:1037B00001F02EFE0121112001F02AFE0121172027
:1037C00001F026FE4FF49C71122001F021FE4FF40F
:1037D0000061132001F01CFE0921292001F018FED0
:1037E00009212A2001F014FE0021A42001F010FE7E
:1037F0000021502001F00CFEEF21512001F008FEC5
:103800000021522001F004FE40F23F11532001F04C
:10381000FFFD4FF41C51602001F0FAFD01216120F1
:1038200001F0F6FD00216A2001F0F2FD0021802068
:1038300001F0EEFD0021812001F0EAFD002182204F
:1038400001F0E6FD002100E024E0832001F0E0FD2E
:103850000021842001F0DCFD0021852001F0D8FD4D
:103860001321902001F0D4FD0021922001F0D0FD21
:103870000321932001F0CCFD4FF48871952001F0D5
:10388000C7FD40F27311072001F0C2FD322002F0A3
:10389000A7F8B8E43448808841F2055188427DD1C8
:1038A0000021072001F0B4FD322002F099F84FF416
:1038B0008E71122001F0ACFD0121A42001F0A8FDC1
:1038C0000F21082001F0A4FD08210A2001F0A0FD2D
:1038D00008210D2001F09CFD40F20771302001F01D
:1038E00097FD0721312001F093FD40F20361322062
:1038F00001F08EFD4FF4E061332001F089FD40F2CC
:103900000221342001F084FD0221352001F080FDE8
:1039100041F60F71362001F07BFD40F20771372030
:1039200001F076FD0021382001F072FD00213920E0
:1039300001F06EFD40F207713A2001F069FD0021AF
:103940003B2001F065FD07213C2001F061FD0021D5
:103950003D2001F05DFD322002F042F801210720F8
:1039600001F056FD012101E0C0130020172001F0F5
:103970004FFD322002F034F84FF4BD51102001F019
:1039800047FD40F21721112001F042FD4FF48F71E5
:10399000122001F03DFD4FF4706100E098E013202B
:1039A00001F036FD00212A2001F032FD0A212920F4
:1039B00001F02EFD4FF49F71122001F029FD00212E
:1039C000502001F025FDEF21512001F021FD0021C3
:1039D000522001F01DFD40F23F11532001F018FD6F
:1039E0004FF41C51602001F013FD0121612001F012
:1039F0000FFD00216A2001F00BFD0021802001F065
:103A000007FD0021812001F003FD0021822001F04B
:103A1000FFFC0021832001F0FBFC0021842001F049
:103A2000F7FC0021852001F0F3FC1321902001F028
:103A3000EFFC4FF44071922001F0EAFC0521932045
:103A400001F0E6FC0021952001F0E2FC0021972026
:103A500001F0DEFC0021982001F0DAFC4FF48071C7
:103A6000012001F0D5FC4FF4E061022001F0D0FC10
:103A700041F23801032001F0CBFC0021042001F0C9
:103A8000C7FC00210C2001F0C3FC00210F2001F035
:103A9000BFFC0021202001F0BBFC0021212001F00F
:103AA000B7FC2121072001F0B3FC142001F098FF9E
:103AB0006121072001F0ACFC142001F091FF40F2DD
:103AC0007311072001F0A4FC142001F089FF95E494
:103AD000FE4880884BF2055188427CD1002108467F
:103AE00001F096FC0021084601F092FC00210846F6
:103AF00001F08EFC0021084601F08AFC0121A4207F
:103B000001F086FC142001F06BFF4FF41C51602083
:103B100001F07EFC40F20221082001F079FC4FF414
:103B20000571302001F074FC43F21571312001F071
:103B30006FFC40F20461322001F06AFC40F616612D
:103B4000332001F065FC42F21121342001F060FCC9
:103B50004FF4A851352001F05BFC48F207513620A4
:103B600001F056FC41F20741372001F051FC41F2CF
:103B70000341382001F04CFC2021392001F048FCA1
:103B80001A21902001F044FC0021102001F040FC9B
:103B90000721112001F03CFC0021122001F038FC2B
:103BA0000021132001F034FC142001F019FF4FF420
:103BB000E661102001F02CFC40F23711112001F0D9
:103BC00027FC142001F00CFF4FF4DC71122001F0EF
:103BD0001FFC142000E085E001F002FF4FF470614B
:103BE000132001F015FC80212A2001F011FC48214E
:103BF000292001F00DFC142001F0F2FE4FF4807139
:103C0000012001F005FC4FF4E061022001F000FC0E
:103C100041F23801032001F0FBFB40F202210820B1
:103C200001F0F6FB00210A2001F0F2FB00210C203C
:103C300001F0EEFB00210D2001F0EAFB30210E2007
:103C400001F0E6FB0021502001F0E2FBEF215120C2
:103C500001F0DEFB0021522001F0DAFB40F23F11BF
:103C6000532001F0D5FB4FF41C51602001F0D0FB34
:103C70000121612001F0CCFB00216A2001F0C8FB8A
:103C80001121902001F0C4FB4FF4C061922001F09B
:103C9000BFFB40F20241932001F0BAFB02219420C5
:103CA00001F0B6FB142001F09BFE0121072001F07A
:103CB000AFFB142001F094FE6121072001F0A8FB66
:103CC00040F27311072001F0A3FB0021202001F036
:103CD0009FFB0021212001F09BFB2221002001F00D
:103CE00097FB42E4794880884CF2055188427CD1A8
:103CF0000021084601F08CFB0021084601F088FBFA
:103D0000142001F06DFE0021084601F081FB002126
:103D1000084601F07DFB0021084601F079FB0021F7
:103D2000084601F075FB0121A42001F071FB14206D
:103D300001F056FE4FF41C51602001F069FB40F683
:103D40000601082001F064FB40F20371302001F00D
:103D50005FFB0121312001F05BFB0421322001F0E7
:103D600057FB4FF48171332001F052FB4FF4407147
:103D7000342001F04DFB40F20311352001F048FBE7
:103D80001F21362001F044FB40F20371372001F07F
:103D90003FFB0121382001F03BFB0421392001F0D9
:103DA00037FB1521902001F033FB4FF48261102086
:103DB00001F02EFB40F24721112001F029FB4FF4C6
:103DC000DE71122001F024FB4FF46061132001F03A
:103DD0001FFB782001F004FE4FF48071012001F0F8
:103DE00017FB4FF40071022000E052E001F010FBDD
:103DF00041F23001032001F00BFB08210A2001F001
:103E000007FB00210C2001F003FB20210E2001F014
:103E1000FFFA00210F2001F0FBFA0021202001F021
:103E2000F7FA0021212001F0F3FA3D212A2001F0C8
:103E3000EFFA142001F0D4FD2D21292001F0E8FA39
:103E40000021502001F0E4FA4DF2EF01512001F081
:103E5000DFFA0021522001F0DBFA40F23F1153203B
:103E600001F0D6FA0021612001F0D2FA00216A2087
:103E700001F0CEFA4FF44071922001F0C9FA052109
:103E8000932001F0C5FA4FF48071072001F0C0FAC9
:103E900055E40E48808848F6891188427ED1012178
:103EA000002001F0B5FA4AF6A401032001F0B0FAAF
:103EB00000210C2001F0ACFA40F60C010D2001F0BD
:103EC000A7FA4FF42C510E2002E00000C01300208E
:103ED00001F09EFAB0211E2001F09AFA42F63F311D
:103EE000012001F095FA4FF4C061022001F090FA30
:103EF0000021102001F08CFA46F27801112001F027
:103F000087FA0021052001F083FA0021062001F044
:103F10007FFA4EF61C71162001F07AFA0321172061
:103F200001F076FA40F23321072001F071FA002106
:103F30000B2001F06DFA00210F2001F069FA002139
:103F4000412001F065FA0021422001F061FA0021D0
:103F5000482001F05DFA40F23F11492001F058FA83
:103F600000214A2001F054FA00214B2001F050FAC0
:103F70004FF46F41442001F04BFA0021452001F03D
:103F800047FA40F23F11462001F042FA40F2077131
:103F9000302001F03DFA4FF4017100E040E03120A3
:103FA00001F036FA4FF40171322001F031FA40F29B
:103FB0000251332001F02CFA40F20751342001F075
:103FC00027FA4FF40171352001F022FA4FF4017104
:103FD000362001F01DFA40F20251372001F018FAA4
:103FE00040F202313A2001F013FA40F202313B2054
:103FF00001F00EFA0021232001F00AFA002124200A
:1040000001F006FA4FF40041252001F001FA0021E9
:104010004F2001F0FDF900214E2001F0F9F9F0E305
:10402000FE48808844F2315188427DD10121002030
:1040300001F0EEF90A2001F0D3FC41F228611020D2
:1040400001F0E6F90E21122001F0E2F940F63921E3
:10405000132001F0DDF90A2001F0C2FC40211120FB
:1040600001F0D6F95021152001F0D2F90A2001F013
:10407000B7FC1E21122001F0CBF90A2001F0B0FCA0
:104080004FF4B151102001F0C3F942F63921132049
:1040900001F0BEF90A2001F0A3FC4FF48071012069
:1040A00001F0B6F94FF44071022001F0B1F941F28C
:1040B0003801032001F0ACF940F20221082001F0A0
:1040C000A7F908210A2001F0A3F90021302001F00E
:1040D0009FF940F20241312001F09AF94FF48371C7
:1040E000322001F095F940F20351332001F090F9AC
:1040F0004FF48271342001F08BF940F20131352008
:1041000001F086F940F20771362001F081F940F2A2
:104110000531372001F07CF94FF40271382001F0AD
:1041200077F940F60B7100E03CE0392001F070F9BE
:104130000221412001F06CF94FF41C51602001F084
:1041400067F90121612001F063F94FF404719020B7
:1041500001F05EF94FF48571922001F059F90421C4
:10416000932001F055F94FF48071A02001F050F92F
:104170000121072001F04CF92121072001F048F925
:104180002321072001F044F93321072001F040F9F1
:1041900040F23311072001F03BF90021A02001F08B
:1041A00037F92EE39D48808844F2355188427CD10E
:1041B0003021152001F02CF910219A2001F028F966
:1041C0002021112001F024F943F22841102001F0B0
:1041D0001FF90221122001F01BF941F238011320CE
:1041E00001F016F9282001F0FBFB1221084601F02E
:1041F0000FF9282001F0F4FB43F22041102001F0D8
:1042000007F943F23801132001F002F9462001F0CA
:10421000E7FB0021302001F0FBF840F202413120A1
:1042200001F0F6F840F20731322001F0F1F84FF4D6
:104230004171332001F0ECF80421342001F0E8F85A
:1042400040F20141352001F0E3F840F207713620D9
:1042500001F0DEF840F20531372001F0D9F84FF4D3
:10426000C261382001F0D4F84FF4C261392001F066
:10427000CFF84FF48071012001F0CAF84FF440717B
:10428000022001F0C5F841F23001032001F0C0F82E
:1042900040F60801082001F0BBF808210A2001F0CF
:1042A000B7F84FF41C51602000E033E001F0B0F8A3
:1042B0000121612001F0ACF84FF49F71902001F0D2
:1042C000A7F84FF48071922001F0A2F84FF48071AA
:1042D000932001F09DF84FF44051A02001F098F890
:1042E0001021A32001F094F80121072001F090F89B
:1042F0002121072001F08CF82321072001F088F804
:104300003321072001F084F840F23311072001F037
:104310007FF876E24148808841F663118842F8D1FF
:10432000E22001F05BF84FF480703D4908614000E5
:1043300048611D203B490860802039494861086177
:104340008000086140100861400048610220354942
:10435000086080203249486108618000086140108F
:1043600008614000486104202E49086080202C49E3
:104370004861086180000861642001F057FBE0207B
:1043800001F02CF84FF48070254908614000486125
:10439000012024490860802021494861086180008B
:1043A00008610A2001F01CFBE02001F017F84FF42F
:1043B00080701B490861400048610320194908606A
:1043C0008020174948610861800008610C2001F0D5
:1043D00007FB012001F002F80A2001F001FBE620B2
:1043E00000F0FCFF4FF480700D4908614000486107
:1043F0002F200C490860802009494861086180002D
:1044000008614010086140004861FF2005490860CC
:104410008020034948610861800005E0C013002046
:10442000001001400C0C0140086140100861400080
:104430004861FF20F84908608020F8494861086118
:1044400080000861B02000F0C9FF4FF48070F3498C
:104450000861400048612020EF4908608020EF4952
:1044600048610861800008614010086140004861AF
:104470000020E94908608020E8494861086180001F
:10448000086140100861400048610320E24908606B
:104490008020E2494861086180000861401008619D
:1044A0004000486140F21F30DB4908608020DB4952
:1044B000486108618000086140100861400048615F
:1044C0000120D54908608020D449486108618000F6
:1044D0000861401008614000486140F2DF10CE4999
:1044E00008608020CD494861086180000861401063
:1044F0000861400048610020C74908608020C74922
:104500004861086180000861B42000F067FF4FF443
:104510008070C2490861400048610420BE490860BB
:104520008020BE4948610861800008614010086130
:104530004000486140F21F40B74908608020B749F9
:1045400048610861800008614010086140004861CE
:104550000020B14908608020B049486108618000AE
:10456000086140100861400048612E20AA49086097
:104570008020AA49486108618000086140100861F4
:10458000400048610020A44908608020A349486198
:104590000861800008614010086140004861002007
:1045A0009D49086080209D4948610861800008613C
:1045B0004010086140004861002097490860802051
:1045C0009649486108618000086140100861400018
:1045D0004861002090490860802090494861086146
:1045E00080000861B62000F0F9FE4FF480708B491E
:1045F000086140004861022087490860802087499F
:10460000486108618000086140100861400048610D
:104610004FF4037080490860802080494861086138
:1046200080000861401008614000486100207A491C
:104630000860802079494861086180000861401065
:104640000861400048611720734908608020734961
:1046500048610861800008614010086140004861BD
:1046600015206D49086080206C4948610861800010
:1046700008614010086140004861002066490860F8
:104680008020664948610861800008614010086127
:104690004000486100206049086080205F4948610F
:1046A000086180000861F02000F098FE4FF48070EF
:1046B0005A4908614000486103205749086080203A
:1046C00056494861086180000861292000F086FE93
:1046D000D02000F083FE4FF4807050490861400004
:1046E000486100204C49086080204C4948610861BD
:1046F00080000861BE2000F071FE4FF480704749D1
:104700000861400048610520434908608020434912
:1047100048610861800008614010086140004861FC
:10472000FE203D49086080203C49486108618000C6
:104730000861401008614000486101203649086066
:104740008020364948610861800008614010086196
:104750004000486100203049086080202F494861AE
:104760000861800008614010086140004861002035
:104770002949086080202949486108618000086152
:1047800040100861400048610020234908608020F3
:1047900022494861086180000861B82000F01EFECF
:1047A0004FF480701D4908614000486103201A4998
:1047B0000860802019494861086180000861401044
:1047C00008614000486101201349086080201349B6
:1047D0004861086180000861BA2000F0FFFD4FF4D5
:1047E00080700E4908614000486101200A49086054
:1047F00080200A494861086180000861642000F057
:1048000051F80020FBF79EFF0120054908604FF694
:10481000FF70FBF753FF08BD0C0C01400010014076
:10482000A801224210B54FF0883017490860091DD1
:104830000860002014490C3108608815134908618C
:1048400040004861402048611148808848F689113D
:10485000884202D1022001F0E9F80B4808300068D4
:1048600084B2402009490861C00008614FF033302C
:1048700005490860091D08604FF6FF7002490C31B8
:104880000860204610BD0000000C014000100140EF
:10489000C013002010B50446204600F09FFDFFF72E
:1048A000C1FF10BD2DE9F0410446BE2000F096FD89
:1048B0004FF480702D4908614000486105202C4963
:1048C0000860802029494861086180000861401023
:1048D000086140004861204601F093F905464FF019
:1048E0006632244B01F0A0F9074601F05DF920493A
:1048F000086080201D4948610861800008614010FF
:10490000086140004861012019490860802017496A
:1049100048610861800008614010086140004861FA
:10492000FF20134908608020104948610861800019
:104930000861401008614000486100200C4908608F
:1049400080200A49486108618000086140100861C0
:104950004000486100200649086080200349486102
:10496000086180000861BDE8F0810000001001408E
:104970000C0C014066660440F0B505460024002793
:10498000FC48807901280BD1FA48808846F604015A
:10499000884205D0F748808841F66311884208D1E3
:1049A000F4488079F0B9F348808841F66311884271
:1049B00018D1082D15D2DFE805F00406080A0C0E00
:1049C000101206250DE007250BE0042509E005255A
:1049D00007E0012505E0002503E0032501E00225AD
:1049E00000BF00BFE348808849F24131884217D0B8
:1049F000E048808846F60401884211D0DD4880886E
:104A000045F2103188420BD0DA48808845F21051C7
:104A1000884205D0D748808841F6631188427DD10D
:104A2000082D1CD2DFE805F00406090C0F1215183A
:104A300000BF14E044F0800411E044F040040EE0B4
:104A400044F0C0040BE044F0200408E044F06004AB
:104A500005E044F0A00402E044F0E00400BF00BF21
:104A6000C448808845F21051884202D14FF458570B
:104A700000E03627BF48808845F2103188420DD0CB
:104A8000BC48808845F21051884207D0B9488088D8
:104A900041F66311884201D044F00804B54880888B
:104AA00046F60401884201D144F00204214638460A
:104AB00000F0AEFCAF48808841F6631188421DD0FB
:104AC00004F0200068B1AB480088AA4949888842B0
:104AD00014DAA84806884088A64908800846468017
:104AE0000CE0A4480088A3494988884206DDA14813
:104AF000068840889F490880084646809D488088EF
:104B000045F2105188427DD19A49488900F066FCEF
:104B10004FF4807098490861400000E030E148613E
:104B20000020964908608020934948610861800010
:104B3000086190494989491C88B200F04FFC4FF444
:104B400080708D4908614000486100208B490860F1
:104B50008020894948610861800008618549498948
:104B6000891C88B200F03AFC4FF4807082490861D9
:104B7000400048617F480088401E00127F4908605D
:104B800080207D4948610861800008617949498930
:104B9000C91C88B200F022FC4FF48070764908618D
:104BA0004000486173480078401EC0B273490860F5
:104BB0008020714948610861800008616D498889D9
:104BC00000F00CFC4FF480706B49086140004861B4
:104BD00000206A49086080206749486108618000B8
:104BE000086164498989491C88B200F0F7FB4FF4D9
:104BF0008070614908614000486100205F49086099
:104C0000802000E035E05C4948610861800008616F
:104C100058498989891C88B200F0E0FB4FF4807004
:104C2000554908614000486152484088401E0012C2
:104C3000524908608020504948610861800008613D
:104C40004C498989C91C88B200F0C8FB4FF48070B8
:104C5000494908614000486146488078401EC0B21A
:104C60004649086080204449486108618000086125
:104C7000ADE04049488900F0B1FB4FF480703E49F7
:104C800008614000486100203C49086080203A49A2
:104C90004861086180000861401008614000486177
:104CA000002036490860802033494861086180004F
:104CB000086140100861400048612E480088401E8D
:104CC00000122E49086080202B494861086180004D
:104CD0000861401008614000486126480078401E85
:104CE000C0B22649086080202349486108618000DD
:104CF00008612049888900F071FB4FF480701E49DB
:104D000008614000486100201C49086080201A4961
:104D100048610861800008614010086140004861F6
:104D2000002016490860802013494861086180000E
:104D3000086140100861400048610E484088401EEC
:104D400000120E49086080200B494861086180000C
:104D50000861401008614000486106488078401EA4
:104D6000C0B206490860802003494861086180009C
:104D700008612CE0C0130020001001400C0C014021
:104D8000082D1CD2DFE805F004070A0D0F121518D4
:104D900044F0300413E044F0100410E044F0200428
:104DA0000DE000BF0BE044F0380408E044F02804B4
:104DB00005E044F0180402E044F0080400BF00BF1E
:104DC000032744F480542146384600F021FBF0BD0F
:104DD00030B504460D46EA48808849F241318842A0
:104DE00005D0E748808845F21031884240D1E44937
:104DF000488900F0F3FA4FF48070E24908614000FE
:104E000048612012E04908608020DE49486108615D
:104E1000800008614010086140004861E0B2DA4952
:104E200008608020D7494861086180000861D44942
:104E3000888900F0D3FA4FF48070D24908614000AD
:104E400048612812D04908608020CE494861086135
:104E5000800008614010086140004861E8B2CA491A
:104E600008608020C749486108618000086186E1C8
:104E7000C348808846F60401884249D1C0488079F9
:104E8000012804D1BE480088401E001B84B2BC49E2
:104E9000488900F0A3FA4FF48070BA4908614000D5
:104EA00048612012B84908608020B649486108610D
:104EB000800008614010086140004861E0B2B249DA
:104EC00008608020AF494861086180000861AC49F2
:104ED000888900F083FA4FF48070AA490861400085
:104EE00048612812A84908608020A64948610861E5
:104EF000800008614010086140004861E8B2A249A2
:104F0000086080209F49486108618000086136E19F
:104F10009B48808841F6631188427DD1984880790A
:104F200000283FD196480088401E001B84B2944957
:104F3000488900F053FA4FF48070924908614000AC
:104F4000486100209049086080208E4948610861CE
:104F500080000861401008614000486100208A49D3
:104F6000086080208749486108618000086140101E
:104F7000086140004861201283490860802081490F
:104F80004861086180000861401008614000486184
:104F9000E0B27D49086080207A494861086180005C
:104FA000086141E07649488900F018FA4FF48070B2
:104FB00074490861400048612012734908608020EC
:104FC0007049486108618000086140100861400034
:104FD0004861E0B26C49086080206A494861086114
:104FE0008000086140100861400048616448008802
:104FF000401E0012644908608020624948610861CF
:105000008000086140100861400048615C480078F9
:10501000401EC0B25C4900E047E00860802059496A
:1050200048610861800008615549888900F0D6F917
:105030004FF480705349086140004861281252497A
:10504000086080204F494861086180000861401075
:10505000086140004861E8B24B4908608020494936
:1050600048610861800008614010086140004861A3
:1050700043484088401E001243490860802041494F
:105080004861086180000861401008614000486183
:105090003B488078401EC0B23B49086080203949B7
:1050A000486108618000086169E03548808845F200
:1050B0001051884250D13249488900F08FF94FF49D
:1050C0008070304908614000486120122E49086014
:1050D00080202C494861086180000861284949897D
:1050E000491C88B200F07AF94FF4807025490861B4
:1050F00040004861E0B224490860802021494861AD
:105100000861800008611E49888900F067F94FF442
:1051100080701C4908614000486128121A490860E3
:105120008020184948610861800008611449898914
:10513000491C88B200F052F94FF48070114908619F
:1051400040004861E8B21049086080200D4948617C
:1051500008618000086112E009488079012804D1C3
:1051600007480088401E001B84B205494889214633
:1051700000F04EF902498889294600F049F930BD0E
:10518000C0130020001001400C0C01402DE9F84F25
:1051900006460C4690469946009400253CE00027C0
:1051A00037E008EBC50010F807A04FF0000B2BE02C
:1051B0000AF0800030B145F2584221463046FBF7F4
:1051C000A1FB07E00B9828B94FF6FF722146304645
:1051D000FBF798FB4FEA4A0A601C84B211484088EA
:1051E000A04201DCBDE8F88F0098201A484509D19B
:1051F000009884B2701C86B20A480088B04200DC75
:10520000F0E704E00BF1010BBBF1080FD0DB00BFAE
:105210007F1C082FC5DB6D1C0A988542BFDB00BFD1
:10522000E0E70000C01300202DE9F84F80460E464D
:1052300017461C46B3462046E31704EB5373DB10B6
:1052400021464FEAE47C04EB5C7C4FEAEC0CA4EBD7
:10525000CC0CBCF1000F02D04FF0010C01E04FF07C
:10526000000C6344224604EBD27C4FEA6C0C03FB37
:105270000CF3DBB20093A7F12000C7B2002556E083
:105280000C2C07D107EB47002B4901EB800010F8ED
:10529000059013E0102C05D1284800EB071010F8FA
:1052A00005900BE0182C07D107EBC700244901EB50
:1052B000800010F8059001E0BDE8F88F4FF0000A7B
:1052C0002FE009F0800030B11E4802883146404688
:1052D000FBF718FB07E00A9828B91B4802883146FB
:1052E0004046FBF70FFB4FEA49604FEA1069701C1C
:1052F00086B216484088B04200DCDDE7A6EB0B0022
:10530000A0420AD15E4608F101001FFA80F80F485A
:105310000088404500DCCFE706E00AF1010000F01C
:10532000FF0ABAF1080FCCDB00BF681CC5B20098B9
:105330008542A5DB00BFBFE7245E00089862000835
:10534000886800089C1300209E130020C0130020D2
:105350002DE9F84704460D4690469946DDE9096770
:1053600004F0FF0A08EB04001FFA80F809EB0500BF
:105370001FFA80F916E0444502DB5446A81985B2AD
:105380004D4500DB14E0002000903A783346294672
:105390002046FFF749FF304606EBD07104EB610170
:1053A0008CB27F1C38787E2802DC38782028E2DA3C
:1053B00000BFBDE8F88700004FF48071054A116115
:1053C00049005161044908608021516111618900DF
:1053D00011617047001001400C0C01404FF48071C6
:1053E000054A5161490051610449086080215161B9
:1053F0001161890011617047001001400C0C0140DF
:1054000000B502490889FFF7E9FF00BDC01300207D
:1054100010B504460B462046FFF7E0FF4FF48070BE
:1054200005490861400048610448036080204861E4
:1054300008618000086110BD001001400C0C0140A3
:1054400008B50121242000F05FF84FF48070ADF81A
:10545000000010208DF8030003208DF8020069463B
:105460000948FBF724F84FF480710748FBF7F2F87E
:105470000420ADF8000069460448FBF718F8042141
:105480000248FBF7E7F808BD00080140001401409E
:1054900000BFFEE77047000070B5002100230F2217
:1054A000C47804B3154C246804F4E064C4F5E064E3
:1054B000210AC1F10403CA40447804FA03F1847854
:1054C0001440214309010E4C0678A155047804F0DC
:1054D0001F050124AC4005786D11AD0005F1E025F4
:1054E000C5F8004109E0047804F01F050124AC4030
:1054F000044D0678761145F8264070BD0CED00E0AD
:1055000000E400E080E100E029B1064A926902432C
:10551000044B9A6104E0034A92698243014B9A6109
:10552000704700000010024030B500210022002426
:1055300000232D4D6D6805F00C0121B1042905D023
:10554000082923D105E0294D056022E0274D05609B
:105550001FE0254D6D6805F47012234D6D6805F44C
:105560008034022505EB92421CB9214D554305605C
:105570000BE01D4D6D6805F400351DB11C4D554304
:10558000056002E0194D5543056002E0174D0560C6
:1055900000BF00BF144D6D6805F0F0010909154DFD
:1055A0006B5C0568DD4045600F4D6D6805F4E0619A
:1055B000090A104D6B5C4568DD4085600A4D6D68D9
:1055C00005F46051C90A0B4D6B5C4568DD40C56050
:1055D000054D6D6805F44041890B074D6B5CC5684E
:1055E000B5FBF3F5056130BD0010024000127A00F2
:1055F00000093D00AA130020BA130020704710B51F
:1056000000F002F810BD00000CB5002001900090E1
:105610003348006840F480303149086000BF3048AA
:10562000006800F4003000900198401C0190009840
:1056300018B90198B0F5A06FF1D12948006800F4BD
:10564000003010B10120009001E00020009000988F
:10565000012843D12348006840F010002149086028
:105660000846006820F0030008600846006840F023
:10567000020008601A4840681949486008464068B6
:1056800048600846406840F48060486008464068CA
:1056900020F47C1048600846406840F4E8104860F8
:1056A0000846006840F08070086000BF0C48006841
:1056B00000F000700028F9D00948406820F003008D
:1056C000074948600846406840F00200486000BF53
:1056D0000348406800F00C000828F9D10CBD000018
:1056E0000010024000200240042808D14FF0E021C1
:1056F000096941F004014FF0E022116107E04FF029
:10570000E021096921F004014FF0E02211617047A6
:1057100010B51348006840F00100114908600846C0
:105720004068104908400E494860084600680E4924
:1057300008400B4908600846006820F48020086093
:105740000846406820F4FE0048604FF41F0088605F
:10575000FFF755FF4FF000600449086010BD0000DE
:10576000001002400000FFF8FFFFF6FE08ED00E029
:1057700010B540F225511D4800F04AF810B31B48FF
:1057800000F002F9C4B21A48008800F40040C8B919
:105790001748008800F4804060B10A2C03D0002034
:1057A0001349088020E01248008840F40040104966
:1057B000088019E00D2C06D10D48008840F4804087
:1057C0000B49088010E00A480088C0F30D00094921
:1057D0000C5407480088401C05490880084600888A
:1057E000C72801DD0020088010BD000000380140FE
:1057F000A4130020CE13002021B1828942F400526C
:10580000828104E082894DF6FF731A4082817047DD
:1058100070B50246002400230025002040F66A16D9
:10582000B14200D100BFC1F3421501F01F030126B0
:1058300006FA03F3012D02D19689334006E0022DCA
:1058400002D1168A334001E0968A33400C120126B9
:1058500006FA04F41688344013B10CB1012000E0BC
:10586000002070BDF0B5034600240026002500206E
:1058700040F66A17B94200D100BF1846C1F342147E
:1058800001F01F06012707FA06F5012C01D10C30A3
:1058900004E0022C01D1103000E014301AB1076886
:1058A0002F43076002E00768AF430760F0BD0000C8
:1058B0002DE9F04786B005460E460024A24600BFFB
:1058C000A1460027B08900B100BF2F462C8A4CF6B4
:1058D000FF700440F08804432C82AC894EF6F3102C
:1058E0000440B08831890843718908430443AC817E
:1058F000AC8A4FF6FF400440B0890443AC8201A853
:10590000FFF712FE1F48874202D1DDF810A001E028
:10591000DDF80CA0A88900F4004040B10AEBCA00F1
:1059200000EB0A1031684900B0FBF1F807E00AEB20
:10593000CA0000EB0A1031688900B0FBF1F864205E
:10594000B8FBF0F004012009642101FB1089A8894B
:1059500000F4004040B1322000EBC900B0FBF1F090
:1059600000F00700044308E0322000EB0910642136
:10597000B0FBF1F000F00F0004432C8106B0BDE84D
:10598000F08700000038014001468888C0F3080015
:10599000704700BFFEE700BF7047000010B56FF012
:1059A0000400FFF7A1FE0A4800680A49B0FBF1F0C5
:1059B000094908700846007800EB4001C1EBC010AF
:1059C0004FF6FF7101EAC0000449088010BD0000D5
:1059D0000000002000127A00A6130020A813002067
:1059E0000146114A12884A434FF0E0235A610022CF
:1059F0009A611A46126942F001021A6100BF4FF023
:105A0000E022106900F001021AB100F48032002A8D
:105A1000F5D04FF0E022126922F001024FF0E023AE
:105A20001A6100229A617047A81300200146114AAA
:105A300012784A434FF0E0235A6100229A611A46D5
:105A4000126942F001021A6100BF4FF0E0221069B2
:105A500000F001021AB100F48032002AF5D04FF0B4
:105A6000E022126922F001024FF0E0231A610022C5
:105A70009A617047A613002000BF054A128802F001
:105A80004002002AF9D0C2B2014B1B1D1A80704798
:105A9000003801401CB5FFF7D3FCFAF7DFFDFFF734
:105AA0007DFF4FF4E13000F02FF8FBF7DDF84FF405
:105AB00078400E4908804FF4FC600D49088014E0DE
:105AC000002040F27121C8230A4ACDE900101421B8
:105AD0000846FFF75BFB08A0182114239622CDE9A6
